:020000022000DC
:1060000000000120B5620200DD620200DF620200D2
:10601000E1620200E3620200E562020000000000AB
:10602000000000000000000000000000E762020025
:10603000E962020000000000EB620200ED62020073
:1060400025A70200EF620200BDB40200EF62020069
:10605000EF620200EF620200DDB10200EF620200B7
:10606000EF620200EF620200EF620200EF620200E4
:10607000EF620200EF620200EF620200EF620200D4
:10608000EF62020079840200EF620200EF62020018
:10609000B9840200EF620200F9F90200EF62020027
:1060A000EF620200EF620200EF620200EF620200A4
:1060B000EF620200EF62020000000000000000003A
:1060C000EF620200EF620200EF620200EF62020084
:1060D000EF620200EF620200EF62020000000000C7
:1060E00000000000000000000000000000000000B0
:1060F00000000000000000000000000000000000A0
:10610000000000000000000000000000000000008F
:10611000000000000000000000000000000000007F
:10612000000000000000000000000000000000006F
:10613000000000000000000000000000000000005F
:10614000000000000000000000000000000000004F
:10615000000000000000000000000000000000003F
:10616000000000000000000000000000000000002F
:10617000000000000000000000000000000000001F
:10618000000000000000000000000000000000000F
:1061900000000000000000000000000000000000FF
:1061A00000000000000000000000000000000000EF
:1061B00000000000000000000000000000000000DF
:1061C00000000000000000000000000000000000CF
:1061D00000000000000000000000000000000000BF
:1061E00000000000000000000000000000000000AF
:1061F000000000000000000000000000000000009F
:1062000010B5054C237833B9044B13B10448AFF3F0
:1062100000800123237010BD08250020000000002D
:10622000DC0B030008B5034B1BB103490348AFF374
:10623000008008BD000000000C250020DC0B0300DE
:10624000154B002B08BF134B9D46A3F5803A002148
:106250008B460F461348144A121A09F060FE0F4B82
:10626000002B00D098470E4B002B00D09847002001
:10627000002104000D000D48002802D00C48AFF3A7
:10628000008009F0FDFD2000290007F0B1F909F0B8
:10629000E3FD00BF00000800000001200000000036
:1062A0000000000008250020942E002000000000BF
:1062B000000000000649074A074B9B1A03DD043B18
:1062C000C858D050FBDC03F091FAFFF7B9FF00008B
:1062D000BC0C0300B822002008250020FEE7FEE7E2
:1062E000FEE7FEE7FEE7FEE7FEE7FEE7FEE7FEE786
:1062F00080B5A0B002AFF860B9607A603B60B86862
:1063000003F04DF87B68FB643B683B6500237B65CD
:10631000002387F858300023FB65D7F880303B66B0
:1063200000237B6707F134017B6F0822B86803F014
:10633000F9F808237B67FB6B3B643B8FA7F844307D
:106340007B8FA7F84630002387F8493097F8343020
:1063500003F00303DBB2012B29D17B6BC3F395233D
:10636000BB6697F83430C3F3C203DBB287F848301A
:10637000BB8EC3F38313DBB27B667B6E9A0007F19F
:106380001C017B6FB86803F0CDF87B6E9B007A6FC1
:1063900013447B6707F1400207F11C0107F14C032E
:1063A000009313467A6EB86E00F0BCFF32E097F8A7
:1063B000343003F00303DBB2022B2BD1FB8EC3F38B
:1063C00089139BB23B6797F83430C3F3C203DBB247
:1063D00087F848303B6F082B28BF0823FB6607F17E
:1063E00014017B6FFA6EB86803F09CF87A6FFB6E4D
:1063F00013447B673A6FFB6ED31A3B6707F14C037C
:1064000007F1400207F11400F96E01F02DF83B6F1F
:10641000002BDFD1B86802F0D2FF00BF7837BD464D
:1064200080BD000080B582B000AF78607B681B78CB
:106430001A460D4B9B5C002B05D07B680433184635
:1064400006F0F2FA0BE07B681B781A46064B9B5C61
:10645000002B04D17B680C33184605F07FFC00BF8D
:106460000837BD4680BD00BF902E002080B586B0A5
:1064700000AFF860B9601346FB7100237B61FB68D5
:106480001B781A46104B9B5C002B08D0FB6804332A
:10649000FA79B968184606F0F7FA78610EE0FB68F9
:1064A0001B781A46084B9B5C002B07D1FB680C330A
:1064B000FA79B968184605F0C7FC78617B69184617
:1064C0001837BD4680BD00BF902E002080B483B039
:1064D00000AF78603960044B01221A7000BF0C379E
:1064E000BD465DF8047B704764250020B0B58CB0D4
:1064F00000AF0346FB711A4B07F108041D460FCD90
:106500000FC495E80F0084E80F000623BB604FF02E
:10651000FF33FB604FF0FF333B614FF0FF337B6194
:106520004FF0EB733B62FB79002B01D00D4A00E08A
:10653000002207F1080319460B4803F025FFF86213
:10654000FB6ABB62BB6A002B02D0B86A01F00EFA8C
:10655000064AFB79137000BF3037BD46B0BD00BF9F
:1065600074FF0200CD640200B822002065250020DF
:1065700080B582B000AF0123FB71FB791846FFF7AD
:10658000B5FF00BF0837BD4680BD000080B588B0AC
:1065900000AFF860B9607A607B68FB77114B00222E
:1065A0001A70FB7F1A46B9680F48FFF75FFFB861A2
:1065B000BB697B617B69002B02D0786901F0D6F959
:1065C00000BF0A4B1B78002B07D0064B1B78DBB2B1
:1065D00083F00103DBB2002BF3D100BF2037BD46AF
:1065E00080BD00BF64250020B82200206525002062
:1065F00080B584B002AF78603960064B00934023C9
:10660000054A39687868FFF773FE00BF0837BD4652
:1066100080BD00BF8D6502002425002080B483B0BA
:1066200000AF786000BF0C37BD465DF8047B704753
:1066300080B582B000AF78600448FFF7F3FE002019
:10664000FFF754FF00BF0837BD4680BDB8220020C9
:1066500080B483B000AF78607B68DB6801225A7138
:1066600000BF0C37BD465DF8047B704780B582B033
:1066700000AF4FF0FF337B60FFF77AFF042105483E
:1066800000F062FD78600348FFF7E2FF00BF0837C3
:10669000BD4680BDA40C030080B582B000AF786019
:1066A00039607B681B681B6839687868984700BF49
:1066B0000837BD4680BD80B582B000AF78607B688A
:1066C0001B685B687868984700BF0837BD4680BD87
:1066D00080B582B000AF78607B681B689B68786883
:1066E000984700BF0837BD4680BD80B483B000AF77
:1066F00078600B46FB707B68DB68FA781A7100BF24
:106700000C37BD465DF8047B704780B483B000AFA2
:1067100078607B68DB681B7918460C37BD465DF8EE
:10672000047B704780B483B000AF78607B68DB681F
:1067300001225A7100BF0C37BD465DF8047B7047DB
:1067400080B483B000AF78607B68DB685B79184603
:106750000C37BD465DF8047B7047000080B584B0FF
:1067600000AF78603960154BFF229A60134B00220E
:106770001A60124B00225A60104B0022C3F81824F2
:106780000E4B0022C3F814240C4B002283F8202463
:106790000B4802F06BFDF860FB68002B01D0FB6832
:1067A00008E0084802F051FF074A084BD31ADB08FB
:1067B000BB60002318461037BD4680BDD0260020A0
:1067C000300C0300B4FF0200A40C0300440C0300CF
:1067D00080B400AF044A054BD31ADB081846BD4607
:1067E0005DF8047B704700BFA40C0300440C030059
:1067F00080B586B000AF78600B46FB70FB78002B4D
:106800001FD0FFF7E5FF386100237B6113E07B6950
:106810009B000E4A1344FB60FB681B881A467B688A
:106820001B689A4204D17B687A691A60002309E0E8
:106830007B6901337B617A693B699A42E7D305231F
:1068400000E0002318461837BD4680BD042500200F
:1068500080B584B000AF78600B46FB70FA783B1DC2
:1068600011461846FFF7C4FF0346002B07D17B688B
:10687000DB00054A1344FB60FB681B6800E0002353
:1068800018461037BD4680BD440C030080B485B067
:1068900000AF78600B46FB707B68DB00144A134442
:1068A000BB60FB78013B032B18D801A252F823F000
:1068B000C1680200C7680200CD680200D568020006
:1068C0000223FB730DE00423FB730AE0BB681B7912
:1068D000FB7306E0BB685B79FB7302E00023FB738C
:1068E00000BFFB7B18461437BD465DF8047B70473C
:1068F000440C030080B485B000AF78603960002399
:10690000FB737B681B7803F00403DBB2002B23D0FE
:106910007B681B78C3F30103DBB2012B02D0022B8F
:106920000CD017E03B681B687A681288C2F38312A8
:10693000D2B213449A1C3B681A600BE03B681B6898
:106940007A685288C2F3891292B213449A1C3B6847
:106950001A6000BF0123FB73FB7B18461437BD464A
:106960005DF8047B7047000080B58AB000AF00235B
:10697000FB84384801F0DDFF374801F0DAFF374B80
:106980005B683B61354B9B68BB613A69BB691340EF
:1069900002339B00314A134404333B6207F1100376
:1069A0001946386AFFF7A6FF0346002B09D03A695B
:1069B000BB69134002339B00284A134404333B62F3
:1069C000ECE700BF0023FB6111E03B695A1C3A6110
:1069D000BA691340FA699200391D0A441F4902330B
:1069E0009B000B445B681360FB690133FB61FB692F
:1069F000012BEAD93B79C3F30103DBB2012B0ED0A3
:106A0000022B00D016E07B89FB84FB88C3F389133B
:106A10009BB203339A083B6913443B610AE07B89CC
:106A2000FB84BB88C3F38313DBB21A463B69134470
:106A30003B6100BF084801F089FF78617B69002B4A
:106A400002D03B69054A5360FB8C18462837BD4687
:106A500080BD00BFE82A0020E42A0020D0260020C4
:106A600080B584B000AF0021074801F0CDFEF8608A
:106A7000FB68BB60BB6883F310037B607B681846D0
:106A80001037BD4680BD00BFEC2A002080B588B01D
:106A900000AFF860B9607A603B60FB681B0CBB61BB
:106AA000FFF7DEFFF861FB6919043B685A1CBB6AFB
:106AB0001340BA690A431B4902339B000B445A60D6
:106AC0003A68BB6A134002339B00164A13440433EE
:106AD0007B61FB6803F00703D9B27A69137861F32D
:106AE000C50313707B6803F00F03D9B27A6913886A
:106AF00061F389131380BB68C3F315017A691368C6
:106B000061F39F2313607A691378012161F3010314
:106B100013707A6913786FF38203137000BF203704
:106B2000BD4680BDD026002080B58CB000AFF86097
:106B3000B9601346FB71FB680233BB62012387F81F
:106B400027300023FB7607F11B03184601F0F6FD02
:106B5000384B1A68BB681A60364B9A68354B5968CF
:106B6000344B1B68CB1A13440133FB6214E0012140
:106B7000314801F0ACFEFFF7F7FEF861F9692E48E5
:106B800001F0A5FE2B4B9A682A4B5968294B1B68CC
:106B9000CB1A13440133FB62BA6AFB6A9A42E6D805
:106BA00097F82730002B3BD000237B61FB79002B2B
:106BB00011D03B7D012262F301033B753B7D43F025
:106BC00004033B75FB6803F00F03DAB2BB8A62F380
:106BD0008913BB8210E03B7D022262F301033B7507
:106BE0003B7D43F004033B75FB68C3F309039AB292
:106BF000FB8A62F38F13FB820E4B1A680D4B9B6866
:106C0000134002339B000B4A134404333B627A69FE
:106C10003B6A1A60074B1A68BB6A1344054A136043
:106C2000FB7E184601F095FD97F82730184630375F
:106C3000BD4680BDD0260020EC2A002080B58AB059
:106C400002AFF860B9607A603B60204B9B687B6163
:106C500007F11003012219463868FFF765FF034664
:106C6000002B24D03B690233FB610023BB6111E0A0
:106C7000BB699B007A681A44FB69591CF961796900
:106C80000B401268114902339B000B445A60BB69E8
:106C90000133BB61BA693B689A42E9D33A697B69BF
:106CA000009313463A68B968F868FFF7EFFE074BA0
:106CB00093F82034002B05D000BF00F053F80346B2
:106CC000002BFAD100BF2037BD4680BDD026002062
:106CD00080B582B000AF7860396000230022396847
:106CE0007868FFF7ABFF00BF0837BD4680BD80B5B1
:106CF00086B000AFF860B9607A607B687B6107F1AD
:106D000014020123B968F868FFF798FF00BF18372D
:106D1000BD4680BD80B586B000AFF860B9607A60CE
:106D20003B607B683B613B687B6107F1100202239B
:106D3000B968F868FFF782FF00BF1837BD4680BD0D
:106D400080B400AF064B5A68054B1B689A420CBFD3
:106D500001230023DBB21846BD465DF8047B704773
:106D6000D026002080B598B000AFFFF7E9FF0346BA
:106D7000002B01D00023A9E1924B0022C3F8182474
:106D8000BFF34F8F8F4B5B683B618E4B9B683B64BF
:106D90003A693B6C134002339B008A4A1344043324
:106DA0007B640023FB650023BB650023FB6307F1C5
:106DB00010031946786CFFF79DFD0346002B19D090
:106DC000804BD3F81834002B14D17E4B1A683B69E2
:106DD0009A4205D87B4B1B687A4A5360002375E1C1
:106DE0003A693B6C134002339B00764A13440433E8
:106DF0007B64DCE700237B6511E03B695A1C3A6148
:106E00003A6C13407A6D9200391D0A446D49023381
:106E10009B000B445B6813607B6D01337B657B6D6E
:106E2000012BEAD93B7903F00303DBB2022B40F0DC
:106E30009280FB88C3F389139BB27B63FB88C3F307
:106E400089139BB2502B28BF50239BB23B633B6BF3
:106E5000C3F309039AB2FB8862F38F13FB803B6B89
:106E60000833FB623B79C3F3C203DBB2FB63F96A0D
:106E7000554802F007FAF865FB6D002B00F0C5805D
:106E8000F86D02F08CFA391DBB6D0822F86D02F026
:106E900033FBBB6D0833BB653B69DA433B6C134086
:106EA00001339B00BB623A6BBB6A9A423DD9BB6A15
:106EB000002B08D03A693B6C134002339B00414AD7
:106EC0001344043300E0414B3B62BB6A002B02D009
:106ED000BB6ADBB201E03B6BDBB2FB77BB6A002B2A
:106EE00001D03A4B00E00023BB61BB6A002B06D007
:106EF0003B6BDAB2BB6ADBB2D31ADBB200E0002331
:106F0000FB75FA7FBB6D396AF86D02F0F5FAFB7F0D
:106F1000BA6D1344BB65BB69002B15D0FA7DBB6D00
:106F2000B969F86D02F0E8FA0EE03A693B6C13407B
:106F300002339B00234A134404337B62BB6D3A6BDC
:106F4000796AF86D02F0D8FA7B6B03339A083B69D3
:106F500013443B6159E03B7903F00303DBB2012B9F
:106F600053D1BB88C3F38313DBB2062B28BF0623A0
:106F7000DAB2BB8862F38913BB80BB88C3F3831387
:106F8000DBB20233BB633B79C3F3C203DBB2FB6307
:106F9000BB6B9B0019460C4802F074F9F865FB6D59
:106FA000002B32D0F86D02F0FAF9391DBB6D0822C2
:106FB000F86D02F0A1FABB6D0833BB6500237B6559
:106FC0001BE000BFD0260020300C0300DC26002090
:106FD0003B695A1C3A613A6C134002339B003D4AAC
:106FE0001344191DBB6D0422F86D02F085FABB6DC8
:106FF0000433BB657B6D01337B65BB88C3F38313AF
:10700000DBB21A467B6D9342E2D3FB6D002B3DD081
:10701000304BD3F810343B652E4BD3F81834002B8B
:107020001BD0F86D02F0CBF94AE0002387F84F300F
:10703000386DFFF785FB0346002B02D0012387F84C
:107040004F3097F84F30002B03D0F96D386DFFF7B4
:1070500023FB3B6DDB681B683B653B6D002BE4D17C
:10706000F86D02F0ACF90023FB70FB1C184601F030
:1070700065FB184BD3F81834002B02D13B69154A35
:107080005360FB78184601F064FB19E0114BD3F80C
:107090001034BB6406E0B86CFFF71AFBBB6CDB680E
:1070A0001B68BB64BB6C002BF5D10B4A0B4BD31A8E
:1070B000DB081B0443F0020309491846FFF708FEEA
:1070C000FFF73EFE034683F00103DBB2184660374C
:1070D000BD4680BDD02600206C0C0300440C03008C
:1070E000C4FF020080B584B000AF0023FB6020E045
:1070F000144BD3F81034BB600123FB710EE0B86869
:10710000FFF703FB03461A46FB68934202D10023B4
:10711000FB7106E0BB68DB681B68BB60BB68002BCB
:10712000EDD1FB79002B01D0FB6807E0FB68013350
:10713000FB60FB68092BDBDD4FF0FF33184610378F
:10714000BD4680BDD026002080B584B000AF7860F9
:107150000B46FB70FFF7C6FFF860FB68B3F1FF3F1B
:1071600001D1FB6822E0FB68DBB219467868FFF7C3
:10717000BCFA104BD3F81034002B08D10D4A7B68B1
:10718000C2F810347B68DB6800221A600DE0094BFE
:10719000D3F81034DA687B68DB6812681A60054B34
:1071A000D3F81034DB687A681A60FB681846103729
:1071B000BD4680BDD026002080B582B000AF0D4B0B
:1071C000D3F810347B600B4B012283F8202409E0B4
:1071D0007868FFF7A7FA7868FFF76DFA7B68DB68D5
:1071E0001B687B607B68002BF2D100BF0837BD466F
:1071F00080BD00BFD026002080B483B000AF78608F
:10720000396000BF0C37BD465DF8047B7047000055
:1072100090B585B002AF786039607B68DB88002B61
:107220000AD07B68DB881A461F4B009313461F4A1F
:107230001F49386801F061FC7B681B7A052B2ED052
:107240007B685B7A002B12D07B689B881A467B6830
:107250001B7A19461046FFF719FB03461A46154BD1
:1072600053F822301A461449386801F046FC7B680E
:107270001B6819463868FFF7BFFF7B681B7A1A4600
:107280000E4B53F822407B689B8800211846FFF77D
:10729000DFFA034622460A49386801F02EFC00BF97
:1072A0000C37BD4690BD00BFF8FF02000800030088
:1072B00040000300E822002058000300D4220020F0
:1072C0005C00030080B584B000AFF860B96013467D
:1072D000FB71FB681B7A052B0FD0FB685B7A002BD8
:1072E00006D00D4B1B681A460C49B86801F005FC26
:1072F0000B49B86801F001FC06E0FB79002B03D0D4
:107300000749B86801F0F9FBB86801F0DDFB00BF80
:107310001037BD4680BD00BFE822002058000300A2
:1073200068000300B0B58AB004AFF860B9607A6055
:107330003B60BB6A1B7BFB75BB6A00221A73B96A90
:107340003868FFF765FF7B68062B7FD801A252F8EB
:1073500023F000BF717302007B7302008B73020085
:107360009F730200BD730200E573020015740200F2
:10737000F968B86A01F0C1FB69E0BB681B681A468E
:10738000F968B86A01F0B9FB61E0BB681A68BB68CC
:1073900004331B68F968B86A01F0AFFB57E0BB68BB
:1073A0001A68BB6804331968BB6808331B6800930C
:1073B0000B46F968B86A01F0A0FB48E0BB681968A1
:1073C000BB6804331868BB6808331B68BA680C32A2
:1073D00012680192009303460A46F968B86A01F000
:1073E0008CFB34E0BB681868BB6804331C68BB685E
:1073F00008331B68BA680C321268B9681031096822
:1074000002910192009323460246F968B86A01F09E
:1074100074FB1CE0BB681C68BB6804331D68BB6858
:1074200008331B68BA680C321268B96810310968F1
:10743000B8681430006803900291019200932B46C3
:107440002246F968B86A01F058FB00E000BF00224C
:10745000B96A3868FFF736FFBB6AFA7D1A7300BF56
:107460001837BD46B0BD00BF80B586B000AFF8602C
:10747000B9607A603B60BB68082B5ED83B681B7BB9
:10748000FB743B6800221A7339687868FFF7C0FE06
:1074900000237B6114E07A69BB689A4209D2FA68DA
:1074A0007B6913441B781A462649386801F025FB8E
:1074B00003E02549386801F020FB7B6901337B61DB
:1074C0007B69072BE7D92149386801F016FB0023B7
:1074D0007B6126E07A69BB689A421BD2FA687B69B5
:1074E00013441B78BB74BB7C7E2B0CD808F0ECFCDF
:1074F0000246BB7C013313441B7803F09703002B37
:1075000001D0BB7C00E02E231A461149386801F0F7
:10751000F4FA03E00F49386801F0EFFA7B690133B0
:107520007B617B69072BD5D9012239687868FFF721
:10753000C9FE3B68FA7C1A7300E000BF1837BD46ED
:1075400080BD00BF6C0003007400030078000300DE
:107550007C000300800003002DE9F04F8DB000AFE8
:10756000F860002387F82F30A6E0594B1A6897F887
:107570002F30DB001344BB62BB6A1B7819464FF007
:1075800001024FF00003A1F12006C1F1200003FA2F
:1075900001FB02FA06F64BEA060B22FA00F04BEA70
:1075A000000B02FA01FAC7E908AB4A4BD3E9000124
:1075B000D7E9082302EA000403EA010522462B4624
:1075C000134374D0D7E908236FEA02006FEA03017E
:1075D000404BD3E9002302EA000203EA01033D49DC
:1075E000C1E90023BB6A1B78184603F0E6FD034699
:1075F000FB77BB6A1B7819464FF001024FF000037E
:10760000A1F12006C1F1200003FA01F47C6002FA26
:1076100006F67C6834437C6022FA00F07C68044300
:107620007C6002FA01F33B602B4BD3E90023D7E9DE
:10763000000100EA020001EA030104460D46FA7F58
:107640004FF00003B96A0978A1F12006C1F12000CA
:1076500003FA01F902FA06F649EA060922FA00F0ED
:1076600049EA000902FA01F820462946494508BFBF
:1076700040451CD1FB7FBA6A5278012A0CBF012217
:107680000022D2B293420CBF01230023DBB2DAB254
:107690004FF00003C7E90423BB6A5B68002B06D0E8
:1076A000BB6A5B68BA6A1278397C1046984797F8CB
:1076B0002F30013387F82F30084B1B7897F82F2095
:1076C0009A42FFF452AF00BF3437BD46BDE8F08F99
:1076D000F42A0020282B0020202B0020F82A00204C
:1076E000F0B587B000AF78600A46FA704FF001013C
:1076F0004FF000027868A0F12006C0F1200502FAE0
:1077000000F401FA06F6344321FA05F52C4301FA98
:1077100000F3C7E90434304B184600F071FFF860FD
:10772000FB68002B54D12D4BD3E90012D7E9043468
:1077300003EA010504EA020655EA060337D1786830
:1077400003F03BFD0346002B0CD0254BD3E9001280
:10775000D7E9043443EA010544EA0206204AC2E9B3
:1077600000560FE0D7E904346FEA03016FEA040220
:107770001B4BD3E9005605EA010306EA0204184A46
:10778000C2E90034154BD3E90012D7E9043443EAC7
:10779000010544EA0206114AC2E900560E48114B9F
:1077A0001B680022194600F0F7FEF86011E0D7E9E7
:1077B00004346FEA03016FEA0402084BD3E9005670
:1077C00005EA010306EA0204044AC2E9003400E0C3
:1077D00000BF1C37BD46F0BD002B0020282B002029
:1077E000202B0020FC2A002090B58BB000AFF86061
:1077F0000B467A60FB727B68042B01D8072356E0A6
:1078000003F0C8FB034683F00103DBB2002B09D071
:1078100003F076FB78627B6A3B623B6A002B01D007
:107820003B6A44E0244AFB681360244AFB7A1370E5
:10783000234A7B681360234A4FF000034FF0000493
:10784000C2E90034204A4FF000034FF00004C2E9BF
:10785000003421E0FB7ADB00FA681344FB6107F196
:10786000140300210A461A800A469A7003233B75C6
:10787000FB699B787B75FB691B78184607F114033D
:10788000124A194603F098FB78627B6ABB61BB69B8
:10789000002B01D0BB690AE0FB7A5A1EFA72002B5A
:1078A000D8D10B4A00210B4800F042FE034618468F
:1078B0002C37BD4690BD00BFF42A0020F82A0020D6
:1078C000FC2A0020202B0020282B0020E17602003B
:1078D000597502008400030080B582B000AF002318
:1078E0007B600CE00B4B1A687B68DB0013441B7851
:1078F0000121184603F0D0FB7B6801337B60064B07
:107900001B781A467B689342ECD30023184608374D
:10791000BD4680BDF42A0020F82A002080B582B040
:1079200000AF00237B600BE00D4B1A687B68DB0027
:1079300013441B78184603F017FC7B6801337B6007
:10794000084B1B781A467B689342EDD3064B1846CA
:1079500000F056FE034618460837BD4680BD00BFFE
:10796000F42A0020F82A0020002B002080B586B0E1
:1079700000AF78600023FB6000233B617B687B6184
:1079800007F10C031A46002144F2010000F018F838
:1079900000BF1837BD4680BD80B400AFBFF34F8F26
:1079A000054BDB6803F4E0620349044B1343CB60EF
:1079B000BFF34F8F00BFFDE700ED00E00400FA05C4
:1079C00080B584B000AFF860B9607A6072B6FFF736
:1079D000F3FB00BFFFF7C6F90346002BFAD1114AAB
:1079E000114BD31ADB081B0443F001030F4918465F
:1079F000FFF76EF90E4B1B6803F00103002B00D05C
:107A000000BE084A084BD31ADB081B0443F00203EC
:107A100008491846FFF75CF9FFF7BEFF00BF1037B3
:107A2000BD4680BD6C0C0300440C030088000300BD
:107A3000F0ED00E09400030080B483B000AF034693
:107A4000FB71FB7903F01F02074997F907305B09C7
:107A5000012000FA02F241F8232000BF0C37BD4696
:107A60005DF8047B704700BF00E100E080B483B0A4
:107A700000AF0346FB71FB7903F01F02074997F93A
:107A800007305B09012000FA02F2203341F823207D
:107A900000BF0C37BD465DF8047B704700E100E095
:107AA00080B483B000AF0346FB71FB7903F01F0283
:107AB000074997F907305B09012000FA02F24033C9
:107AC00041F8232000BF0C37BD465DF8047B7047AA
:107AD00000E100E080B483B000AF0346FB71FB79A6
:107AE00003F01F02074997F907305B09012000FAEC
:107AF00002F2603341F8232000BF0C37BD465DF829
:107B0000047B704700E100E080B483B000AF03461F
:107B10003960FB7197F90730002B0BDA3B68DAB25A
:107B20000C49FB7903F00F03043B5201D2B20B4422
:107B30001A7609E03B68DAB2074997F90730520133
:107B4000D2B20B4483F8002300BF0C37BD465DF86A
:107B5000047B704700ED00E000E100E080B584B0F8
:107B600000AF78607B68002B0AD0074B43F001031D
:107B7000FB607B689B01BB60FB68B868984700E0CE
:107B800000BF1037BD4680BDB000030080B582B095
:107B900000AF7860054A7B68C2F8083506211120DD
:107BA000FFF7B2FF00BF0837BD4680BD001001409F
:107BB00080B500AF0D4B4FF48032C3F844230B4B1C
:107BC0004FF48032C3F804231120FFF783FF112004
:107BD000FFF732FF054B01221A602F20FFF7BEFF8F
:107BE000034B01221A7000BF80BD00BF001001408E
:107BF0004E2C002080B500AF1120FFF737FF0F4B50
:107C00004FF48032C3F848230C4B4FF48032C3F852
:107C100008230A4B01225A602F20FFF79FFF074BD2
:107C200001229A60064B00221A602F20FFF796FF70
:107C3000044B00221A7000BF80BD00BF001001403D
:107C4000402C00204E2C002080B400AF034BD3F812
:107C500004351846BD465DF8047B704700100140AE
:107C600080B483B000AF786039607A683B68D31A1B
:107C700023F07F4318460C37BD465DF8047B704700
:107C800080B483B000AF7860044A7B68C2F84035A6
:107C900000BF0C37BD465DF8047B70470010014003
:107CA00080B487B000AF7860294B1B68002B03D1EC
:107CB000274A7B68136045E07B681A68244B1B6881
:107CC0001B689A4210D8224B1B6819687B681A6897
:107CD0001F4B1B688A1A1A601D4B1A687B68DA6191
:107CE0001B4A7B6813602DE07B681B68FB60184BA8
:107CF0001B687B61164B1B683B6109E03B691B6895
:107D0000FA68D31AFB603B697B613B69DB693B61C5
:107D10003B69002B04D03B691B68FA689A42EDD896
:107D20003B69002B05D03B691A68FB68D21A3B6996
:107D30001A607B68FA681A607B683A69DA617B6965
:107D40007A68DA6100BF1C37BD465DF8047B704776
:107D50003C2C002080B586B000AF7860294B1B68B2
:107D6000FB60284B1B687B617B693B6108E03A69DB
:107D70007B689A4208D03B697B613B69DB693B6168
:107D80003B69002BF3D100E000BF3B69002B01D120
:107D9000002333E07A693B699A4214D1194B1B687E
:107DA000DB69184A1360174B1B68002B0BD1164B6D
:107DB00001229A60154B00221A60154B01221A709D
:107DC0002F20FFF7CBFE3B691B68BB603B69DA697C
:107DD0007B69DA617B69DB693B613B69002B05D01C
:107DE0003B691A68BB681A443B691A60054B1B68FB
:107DF000FA689A4214BF01230023DBB218461837F1
:107E0000BD4680BD3C2C002000100140402C0020CD
:107E10004F2C002080B500AF1120FFF741FE00BFBE
:107E200080BD80B500AF1420FFF73AFE00BF80BDD3
:107E300080B582B000AF78607B685B697A689269D0
:107E40001046984700BF0837BD4680BD80B584B056
:107E500000AF2B4B1B68002B4ED000237B60FFF73D
:107E6000F3FE0246274B1B6819461046FFF7F8FE43
:107E7000B860234B1B68FB601DE0FB681B68BA6899
:107E80009A421CD3FB681B68BA68D31ABB60FB68B4
:107E90001B687A6813447B60FB683B60FB68DB69A6
:107EA000FB603B681B7C002B05D03B6800221A74EA
:107EB0003868FFF7BDFFFB68002BDED100E000BF94
:107EC000114B1A78114B1B789A420CD10F4B1B782F
:107ED0000133DAB20D4B1A700C4B1B78022B02D116
:107EE0000A4B00221A70094B1B781946084A7B6816
:107EF00042F82130FFF795FF00BF1037BD4680BD27
:107F00003C2C0020402C00204C2C00204D2C00202C
:107F1000442C002080B483B000AF7860194B1A78ED
:107F2000194B1B789A4223D0164B1B780133DAB2D7
:107F3000144B1A70134B1B78022B02D1114B0022E9
:107F40001A70104B1B781A46104B53F822207B688E
:107F50001A607B681A680E4B1B6813440C4A136046
:107F60000B4B1B6823F07F43094A1360012303E096
:107F70007B6800221A60002318460C37BD465DF866
:107F8000047B70474C2C00204D2C0020442C0020FA
:107F9000402C002080B489B000AFF860B9607A60EE
:107FA0000023FB6138E0214B1B68BB61BB691B6888
:107FB000FA689A4206D2BB691A68FB68D21ABB6992
:107FC0001A602DE0BB691B68FA68D31AFB60BB69B5
:107FD0001B68FA691344FB61BB6900221A60134BEA
:107FE0001B687B61BB69DB69104A1360BB69DB6896
:107FF000002B11D0BA68FB69134423F07F42BB69A0
:108000005A60BB69DA68BB699A607B681A68BB69A9
:10801000DA617B687A691A60044B1B68002BC2D155
:1080200000BF2437BD465DF8047B70473C2C002020
:1080300080B588B000AF78600023FB77654B1B6884
:108040007B61A9E07B68002B05D07B68BB61BB69C5
:10805000DB697B6060E0604B1B781A4613465B006F
:108060001344DB005C4A134404333B615A4B1B78D6
:108070000133DAB2584B1A70574B1A78564B9B782B
:108080009A4202D1544B00221A703B695B68BB6173
:108090003B691B78022B04D0032B1AD0012B1ED076
:1080A0001CE03B695B681846FFF754FE0346002B53
:1080B00001D00123FB77BB6900221A746CE0454BA9
:1080C0001B68FB60FB6800221A74FB68DB69414A8D
:1080D0001360404B1B68002BF1D15DE05CE000BFFA
:1080E000BB691B7C002B00D056E03B699A68BB69DA
:1080F0005A603B69DA68BB699A603B691A69BB6977
:10810000DA603B695A69BB699A61344B1B78002B72
:1081100002D0BB6900225A60BB695A68304B1B68A9
:10812000D31A23F07F432F4A93420ED8BB695A6873
:108130002B4B1B6819461046FFF792FD0246BB69A0
:108140009B681A44BB691A6017E0254B1A68BB6923
:108150005B6819461046FFF783FDB860BB699B68F2
:10816000BA689A4206D2BB699A68BB68D21ABB69E0
:108170001A6002E0BB6900221A60BB6900225A60E3
:10818000BB6900229A60BB6901221A74BB69002294
:10819000DA61B869FFF784FD7B68002B7FF452AF8A
:1081A0000D4B1A780C4B5B789A427FF44BAFFB7FF8
:1081B000002B04D1074B1B687A699A4201D0012336
:1081C00000E0002303F00103DBB218462037BD4670
:1081D00080BD00BF3C2C0020302B00204F2C002005
:1081E000402C0020FEFF7F0090B589B000AF786082
:1081F000274B1B68002B44D0254B1B681B68FB6179
:10820000FFF722FDB861234B1B687B617969B86970
:10821000FFF726FD034603333B611F4B1B7883F0BA
:108220000103DBB2002B01D0FFF7C2FC3A69FB6906
:10823000934238BF13467A6913447B617B6923F00C
:108240007F437B617869FFF71BFDFFF7FDFCF8605A
:10825000B969F868FFF704FD0346DC1CB969786961
:10826000FFF7FEFC03469C420DD9FFF7EDFC0346E9
:108270001846FFF705FD2F20FFF770FCFFF7CAFD3A
:1082800001E0FFF7B7FC00BF2437BD4690BD00BF3B
:108290003C2C0020402C00204E2C002080B586B0C5
:1082A00000AF00237B600023FB75164B1B683B610E
:1082B000154B1B68FB603B461846FFF72BFE034639
:1082C000FB72FB7A002B07D03B683A1D39691846D0
:1082D000FFF760FE0123FB757B681846FFF7A8FED9
:1082E0000346002B01D00123FB75FB7D002B02D040
:1082F000F868FFF779FF054B00221A7000BF1837A6
:10830000BD4680BD402C00203C2C00204F2C00207E
:1083100080B483B000AF0346FB71044AFB7953700D
:1083200000BF0C37BD465DF8047B7047302B002042
:1083300080B485B000AF7860134B5B780133FB737A
:10834000114B9B78FA7B9A4201D10023FB730E4BB1
:108350001B78FA7B9A4201D100230EE07B68FA7BFE
:108360001A70094B5B781A4613465B001344DB0016
:10837000054A13440433BB60BB6818461437BD4636
:108380005DF8047B704700BF302B002080B588B0BB
:1083900000AFF860B9607A603B600023FB610023A6
:1083A000BB7507F11603184600F0C8F907F117036B
:1083B0001846FFF7BDFFB861BB69002B02D104234B
:1083C000FB6117E0BB6901221A70BB69FA685A6049
:1083D000FFF73AFC0246BB699A60BB69BA68DA608B
:1083E000BB697A681A61BB693A685A61FB7D1846B5
:1083F000FFF78EFFBB7D184600F0ABF9FB69002B41
:1084000001D1FFF70EFDFB6918462037BD4680BD40
:1084100080B586B000AF78600B46FB7000237B61AF
:108420000023BB7307F10E03184600F087F907F12C
:108430000F031846FFF77CFF38613B69002B02D120
:1084400004237B6109E03B69FA781A703B697A681A
:108450005A60FB7B1846FFF75BFFBB7B184600F0BA
:1084600078F97B69002B01D1FFF7DBFC7B691846AB
:108470001837BD4680BD000080B500AF0D4B00220F
:10848000C3F840210B4B0022C3F84421094B0022C2
:10849000C3F84821074B0022C3F84C21054B0022AA
:1084A000C3F80021034B0022C3F80421FFF7CEFCE0
:1084B00000BF80BD0010014080B500AFFFF7EEFEA9
:1084C00000BF80BD80B500AFFFF794FB134B0022C7
:1084D0001A70124B00225A70104B0B229A70104BDC
:1084E00000221A600F4B00221A700F4B00221A70E4
:1084F0001420FFF7EFFA06211420FFF705FB1420E4
:10850000FFF79AFA0020FFF741FBFFF79DFB0246B9
:10851000064B1A600023184680BD00BF302B002098
:108520003C2C00204C2C00204D2C0020402C002006
:1085300080B487B000AFF8600B467A60FB72154BD1
:108540009B78002B01D108231DE07B68002B01D113
:10855000072318E0FB68002B01D1072313E0FB6819
:108560001B681B7C002B01D008230CE0FB681B68F8
:108570007B617B6900221A747B69FA7A5A747B6981
:108580007A685A61002318461C37BD465DF8047BA3
:10859000704700BF302B002080B586B000AFF86078
:1085A000B9607A60FB687B61144B9B78002B01D12A
:1085B00008231EE0FB68002B01D1082319E0BB68EB
:1085C000042B01D8072314E07B695B69002B01D1E0
:1085D00008230EE07B695B7C012B01D1BB6800E0C6
:1085E00000233B617B683A69B9687869FFF7CEFE82
:1085F000034618461837BD4680BD00BF302B00200B
:1086000080B584B000AF78607B68FB600D4B9B78D1
:10861000002B01D1082310E07B68002B03D0FB68FE
:108620005B69002B01D1082307E0FB6800221A7464
:108630000221F868FFF7ECFE034618461037BD46E6
:1086400080BD00BF302B002080B483B000AFEFF3BB
:1086500010833B603B687B6072B67B6818460C37C2
:10866000BD465DF8047B704780B400AF62B600BFC2
:10867000BD465DF8047B704780B584B000AF78607C
:10868000FFF7E2FFF860164B9B68002B1BD1144BE1
:1086900001229A60134BD3F88020134B1340104AE9
:1086A0001360104B104AC3F880200E4BD3F884306F
:1086B0000B4A53600B4B4FF0FF32C3F884207B68AA
:1086C00000221A7002E07B6801221A70FB68002BFE
:1086D00001D1FFF7C9FF002318461037BD4680BD02
:1086E000842E002000E100E0FC06FFBD80B584B0D0
:1086F00000AF0346FB710F4B9B68002B15D0FB7935
:10870000002B12D1FFF7A0FFF8600B4A094B1B6842
:108710001360094A074B5B685360064B00229A605E
:10872000FB68002B01D1FFF79FFF0023184610378D
:10873000BD4680BD842E002000E100E080B582B0FF
:1087400000AF78607868FFF797FF00BF0837BD4635
:1087500080BD80B582B000AF0346FB71FB7918463F
:10876000FFF7C4FF00BF0837BD4680BD80B584B0A9
:1087700000AF786039603B685B099B007A68D0186D
:108780003B6803F01F03012202FA03F3194600F0CD
:1087900053F8F86000BF1037BD4680BD80B584B087
:1087A00000AF786039603B685B099B007A68D0183D
:1087B0003B6803F01F03012202FA03F3DB4319466F
:1087C00000F06CF8F86000BF1037BD4680BD80B483
:1087D00083B000AF786039603B685B099B007A68C2
:1087E00013441A683B6803F01F0322FA03F303F0F3
:1087F0000103002B14BF01230023DBB218460C3702
:10880000BD465DF8047B704790B486B000AF7860D9
:1088100039607B683A6853E8004F104643E800012E
:1088200091F0000FF7D17C613861F9607B691846DF
:108830001837BD4690BC704790B486B000AF7860E2
:1088400039607B683A6853E8004F44EA020043E825
:10885000000191F0000FF6D17C613861F9603B694D
:1088600018461837BD4690BC704790B486B000AF2C
:10887000786039607B683A6853E8004F04EA020088
:1088800043E8000191F0000FF6D17C613861F96096
:108890007B6918461837BD4690BC704790B486B0C7
:1088A00000AF786039607B683A6853E8004F04EAAB
:1088B000020043E8000191F0000FF6D17C613861BD
:1088C000F9603B6918461837BD4690BC704790B4B4
:1088D00086B000AF786039607B683A6853E8004F33
:1088E00004EB020043E8000191F0000FF6D17C6137
:1088F0003861F9603B6918461837BD4690BC70472F
:1089000090B486B000AF786039607B683A6853E80D
:10891000004FA4EB020043E8000191F0000FF6D1F4
:108920007C613861F9603B6918461837BD4690BCD8
:10893000704780B582B000AF786001217868FFF79A
:108940007BFF034618460837BD4680BD80B582B020
:1089500000AF786000217868FFF787FF034618466C
:108960000837BD4680BD80B483B000AF78600B4649
:10897000FB707B68DA68FB787968098A01FB03F38E
:10898000134418460C37BD465DF8047B704780B42D
:1089900083B000AF786039603B687A68D2689B1A10
:1089A0007A68128AB3FBF2F3DBB218460C37BD4685
:1089B0005DF8047B704780B485B000AF78607B6859
:1089C000002B01D10E231DE07B689B681A467B6853
:1089D0005B68D31AFB737B681B687A6852681A60FD
:1089E00006E07B681A681368591C1160FA7B1A70DC
:1089F000FB7B5A1EFA73002BF3D17B681B680022A5
:108A00001A71002318461437BD465DF8047B704781
:108A100080B584B000AF78600023FB600023BB7298
:108A200007F10A031846FFF789FE7B681B681A687E
:108A30007B685B689A421DD97B681B681A68013A9B
:108A40001A601B681B7819467868FFF78CFFF8607E
:108A50007B689B681A467B681B681B68D31AFB728D
:108A60007B681B681B79FA7A9A4203D97B681B687A
:108A7000FA7A1A71BB7A1846FFF76BFEFB68184644
:108A80001037BD4680BD90B585B000AF78603960C5
:108A90003B68FB600023FB7207F10B031846FFF7EE
:108AA0004DFE7B681B681C68621C1A60F968786858
:108AB000FFF76DFF03462370FB7A1846FFF749FE68
:108AC00000BF1437BD4690BD80B582B000AF78605E
:108AD0007B689B68002B0CD07B685B697A681069A7
:108AE0007A6811687A68926898477B6800229A6071
:108AF00000E000BF0837BD4680BD0EB480B585B02C
:108B000000AF7860FB69002B0CD00023FB6007F1FD
:108B10002003FB6007F10C031A46F969786800F03E
:108B2000AFF900E000BF1437BD46BDE8804003B098
:108B3000704780B582B000AF78600B46FB70FB7861
:108B40000A2B03D10D217868FFF7F3FF7B681A68C1
:108B50007B689B68581C796888601344FA781A709F
:108B60007B689A687B685B689A4202D37868FFF7F3
:108B7000ABFF00BF0837BD4680BD80B586B000AFF3
:108B8000F860B9607A603B6000237B613B6803F06A
:108B90000103002B21D00AE0BB680133BB607B6975
:108BA00001337B61FB7C1946F868FFF7C2FFBB68A5
:108BB0001B78FB74FB7C002BEED106E07B68013B4D
:108BC0007B602021F868FFF7B4FF7A687B699A42DE
:108BD0002BD97B68002BF1D127E0BB68002B0BD091
:108BE000B86807F0A4F9786106E07B68013B7B6018
:108BF0002021F868FFF79DFF7A687B699A420ED9B9
:108C00007B68002BF1D10AE0BB680133BB607B6954
:108C100001337B61FB7C1946F868FFF78AFFBB686C
:108C20001B78FB74FB7C002BEED100BF1837BD46D0
:108C300080BD000080B588B000AFF860B9607A6090
:108C40003B60BB68FB610123BB6107E0FA697B689D
:108C5000B2FBF3F3FB61BB690133BB61FA697B686B
:108C60009A42F3D23A68BB699A4201D93B68BB6128
:108C7000FB6A03F00103002B1FD1BB6A002B1CD041
:108C8000FB6A03F00203002B05D03B68002B02D1E6
:108C90003023FB7501E02023FB7507E0BB6A013B35
:108CA000BB62FB7D1946F868FFF743FFBB6A002BE8
:108CB00003D0BA69BB6A9A42F0D30123FB613B68D7
:108CC000012B03D93B68013B3B6009E0BA68FB69B3
:108CD000B2FBF3F33B613A697B689A4200D205E04C
:108CE000FB697A6802FB03F3FB61E8E7BA68FB699A
:108CF000B2FBF3F33B613B69FA6902FB03F3BA6829
:108D0000D31ABB60154A3B6913441B781946F868AF
:108D1000FFF70FFFFA697B68B2FBF3F3FB61FB69B6
:108D2000002BE3D1FB6A03F00103002B11D0BB6AD7
:108D3000002B0ED006E0BB6A013BBB622021F86825
:108D4000FFF7F7FEBB6A002B03D0BA69BB6A9A42F1
:108D5000F1D300BF2037BD4680BD00BFB80003007F
:108D600080B588B002AFF860B9607A603B60BB68DC
:108D7000002BB8BF5B423B6101237B6107E07B684E
:108D80003A6992FBF3F33B617B6901337B617B685A
:108D90003A699A42F3DA3A687B699A4201D93B68A8
:108DA0007B613B6A002B0AD0BB68002B04DB7B6A2B
:108DB00003F00403002B02D03B6A013B3B627B6A59
:108DC00003F00203002B02D03B68002B16D07B6A15
:108DD00003F00103002B11D13B6A002B0ED006E0FB
:108DE0003B6A013B3B622021F868FFF7A2FE3B6A29
:108DF000002B03D07A693B6A9A42F1D3BB68002BFF
:108E000007DABB685B42BB602D21F868FFF791FE73
:108E100008E07B6A03F00403002B03D02B21F868E1
:108E2000FFF787FE7B6A03F00203002B19D07B6AF1
:108E300003F00103002B14D13B68002B11D13B6AD6
:108E4000002B0ED006E03B6A013B3B623021F86804
:108E5000FFF76FFE3B6A002B03D07A693B6A9A42A8
:108E6000F1D3B9687B6A01933B6A00933B687A68E7
:108E7000F868FFF7DFFE00BF1837BD4680BD000071
:108E800080B58EB002AFF860B9607A60BB68002B25
:108E900000F0E881BB681B7887F82F30BB6801338E
:108EA000BB6097F82F30002B00F0D38197F82F305C
:108EB000252B40F0C28100233B620123BB62BB68CB
:108EC0001B7887F82F3097F82F302D2B04D0302BBC
:108ED0000AD02B2B10D017E03B6A43F001033B6212
:108EE000BB680133BB6012E03B6A43F002033B62A4
:108EF000BB680133BB600AE03B6A43F004033B629A
:108F0000BB680133BB6002E00023BB6200BFBB6AE9
:108F1000002BD4D10023FB6197F82F302A2B0CD1E2
:108F20007B681B68191D7A6811601B68FA69134415
:108F3000FB61BB680133BB601AE0BB681B7887F834
:108F40002F3097F82F302F2B12D997F82F30392B3D
:108F50000ED8BB680133BB60FA6913469B0013440B
:108F60005B001A4697F82F301344303BFB61D3E780
:108F700000237B62BB681B7887F82F3097F82F306F
:108F80002E2B1DD1BB680133BB60BB681B7887F8F3
:108F90002F3097F82F302F2B12D997F82F30392BED
:108FA0000ED8BB680133BB607A6A13469B0013443A
:108FB0005B001A4697F82F301344303B7B62E4E79E
:108FC000BB681B7887F82F3097F82F306C2B03D0B5
:108FD00097F82F30682B07D1BB680133BB60BB68A3
:108FE0001B7887F82F30EFE797F82F30253B532B6E
:108FF00000F21E8101A252F823F000BF2792020066
:10900000319202003192020031920200319202004C
:10901000319202003192020031920200319202003C
:10902000319202003192020031920200319202002C
:10903000319202003192020031920200319202001C
:10904000319202003192020031920200319202000C
:1090500031920200319202003192020031920200FC
:1090600031920200319202003192020031920200EC
:1090700031920200319202003192020031920200DC
:1090800031920200319202003192020031920200CC
:1090900031920200319202003192020031920200BC
:1090A00031920200319202003192020031920200AC
:1090B000319202003192020031920200319202009C
:1090C0003192020031920200B3910200319202000B
:1090D000319202003192020031920200319202007C
:1090E000319202003192020031920200319202006C
:1090F000319202004D9102006B9102003192020008
:109100003192020031920200319202006B91020012
:10911000319202003192020031920200319202003B
:109120003192020031920200F3910200319202006A
:1091300031920200D7910200319202008F91020019
:109140003192020031920200B39102007B681B68E9
:10915000191D7A6811601B68BB62BB6AFB75FB7DD9
:109160001946F868FFF7E5FC63E07B681B68191D8A
:109170007A6811601B68BB623B6A0193FB690093CC
:109180007B6A0A22B96AF868FFF7EAFD51E07B685A
:109190001B68191D7A6811601B68BB62B96A3B6A5B
:1091A0000193FB6900937B6A0A22F868FFF742FD8E
:1091B0003FE07B681B68191D7A6811601B68BB6201
:1091C000B96A3B6A0193FB6900937B6A1022F868D5
:1091D000FFF730FD2DE07B681B68191D7A68116070
:1091E0001B68BB613B6AFA69B969F868FFF7C5FC9F
:1091F0001FE07B681B68191D7A6811601B68BB62E1
:109200003021F868FFF795FC7821F868FFF791FCAA
:10921000B96A002301930823009308231022F868F9
:10922000FFF708FD05E02521F868FFF782FC00E064
:1092300000BFBB680133BB6005E097F82F301946CB
:10924000F868FFF776FCBB681B78002B7FF422AE32
:1092500000E000BFFB681B7B002B04D0F868FFF721
:1092600033FC00E000BF3037BD4680BD80B582B022
:1092700000AF78607868FFF79EFB03461846083712
:10928000BD4680BD80B58AB000AF786039607B682C
:109290001B8A043BFB613A68FB691344DA1CFB69D7
:1092A000B2FBF3F3FB767868FFF7B2FB78617B697A
:1092B000002B01D1002337E07B6900221A717B6902
:1092C00001225A71FB699AB27B69DA807B697B6201
:1092D000FB7E013B3B617B6A7A681A6000233B623C
:1092E0001DE07868FFF794FBF860FB68002B0ED058
:1092F0007B695B790133DAB27B695A717B6AFA6800
:109300001A60FB687A681A60FB687B6204E078691F
:1093100000F00EF8002307E03B6A01333B623A6A33
:109320003B699A42DDD37B6918462837BD4680BD2C
:1093300080B58AB000AF78607B68FB61FB695B79C0
:10934000FB767B683B62FB7E013B7B6100237B629B
:1093500005E03B6A1B683B627B6A01337B627A6A89
:109360007B699A42F5D33B6A1B683B617B683B6231
:1093700000237B620BE03B6A1B68FB60396A38693B
:10938000FFF781FBFB683B627B6A01337B62FB7EFC
:109390007A6A9A42EFD300BF2837BD4680BD80B5B8
:1093A00084B000AF78607B68FB60FB680433012108
:1093B0001846FFF78CFA00BF1037BD4680BD80B558
:1093C00086B000AF78607B687B617B6904330121E4
:1093D0001846FFF795FA0346FB6007F10C033B6163
:1093E0003B691B78002B02D17868FFF7A1FF00BF13
:1093F0001837BD4680BD80B590B000AFF860B96049
:109400007A603B60FB687B62FB68FB637B6ADB889E
:109410001A467B6A5B7903FB02F3043B3B627B6A7F
:10942000DB88FB613B681A1DFB69B2FBF3F3BB638E
:109430003B680433FA69B3FBF2F2F96901FB02F20B
:109440009B1A7B637B681A683B6813443A6A9A42AA
:1094500003D23A6A3B68D31A01E07B681B683B631E
:109460007B683A6B1A6005E0FB6B1B68FB63BB6BA8
:10947000013BBB63BB6B002BF6D10023FB62FA6997
:109480007B6BD31ABB62BA6A3B6B934228BF13460D
:10949000BB622AE0BA68FB6A1344BB61FA6B7B6B60
:1094A000134404337B6197F84830002B05D0BA6A27
:1094B0007969B86906F028FD04E0BA6AB969786983
:1094C00006F022FD00237B63FB6B1B68FB633A6B9A
:1094D000BB6AD31A3B63FA6ABB6A1344FB62FA693C
:1094E0003B6B934228BF1346BB623B6B002BD1D131
:1094F00000BF4037BD4680BD80B588B002AFF86080
:10950000B9607A603B607B687B6107F114020023DD
:1095100000933B68B968F868FFF76DFF00BF183724
:10952000BD4680BD80B588B002AFF860B9607A6092
:109530003B607B687B6107F11402012300933B6869
:10954000B968F868FFF757FF00BF1837BD4680BD00
:1095500080B483B000AF0346FB71FB7903F01F02B8
:10956000074997F907305B09012000FA02F26033DE
:1095700041F8232000BF0C37BD465DF8047B7047DF
:1095800000E100E080B483B000AF78607B68002227
:109590001A60BFF35F8F00BF0C37BD465DF8047BD8
:1095A000704741DF704700BF184680B584B000AFF8
:1095B0000023FB70FB1C1846FFF7C0F8F1EE103AD1
:1095C0007B607B68FB60FB6823F09F03BB60BB682C
:1095D000E1EE103ABFF35F8F2620FFF7B9FFFB786B
:1095E0001846FFF7B6F800BF1037BD4680BD000033
:1095F00080B500AF064B00221A700648FFF7C2FF85
:109600000549064800F043F80023184680BD00BF16
:10961000542C0020502C0020D4000300582C002093
:1096200080B582B000AFFFF7C0FF06F0B1F9034686
:10963000002B03D0FFF7B5FF786002E020BF40BFEA
:1096400020BF00BF0837BD4680BD80B483B000AFE7
:1096500078607B689B6800229A607B689B68002228
:109660001A617B689B6800225A617B689B680022B4
:10967000DA607B689B6800225A607B689B680022E6
:109680001A6000BF0C37BD465DF8047B704780B49C
:1096900083B000AF786039607B683A681A607B6895
:1096A0001B681A687B685A607B685A687B681B680D
:1096B0005B689A4202D17B6800225A6000BF0C3777
:1096C000BD465DF8047B704780B483B000AF78601E
:1096D0007B685B68002B14D07B685B681A467B68EC
:1096E0001B689B6813441A467B685A607B685A68FB
:1096F0007B681B685B689A4204D17B6800225A60D1
:1097000000E000BF0C37BD465DF8047B70470000E9
:1097100080B584B000AF7860786800F00DF8F8602C
:10972000FB68002B01D0FB6800E0024B18461037A5
:10973000BD4680BDE000030080B487B000AF786014
:10974000174B7B61174B3B611FE03A697B69D31A6A
:10975000DB10DA0F13445B10DB007A691344FB6003
:10976000FB681B68BB60BA687B689A4202D9FB68D9
:109770003B610AE0BA687B689A4203D2FB6808330F
:109780007B6102E0FB685B6804E07A693B699A42AE
:10979000DBD3002318461C37BD465DF8047B7047B9
:1097A000E00403000806030080B400AFBFF34F8F4E
:1097B000054BDB6803F4E0620349044B1343CB60C1
:1097C000BFF34F8F00BFFDE700ED00E00400FA0596
:1097D00080B400AF034B044A1A6000BFBD465DF879
:1097E000047B70470C2300200090D00380B500AFAD
:1097F00000F068F90346002B06D0A04B1B681B0A3B
:109800009F4A03F01F03136000F08EF90346002BFC
:1098100002D09C4B9C4A1A6000F0A8F90346002B2A
:1098200006D09A4B1B685B0B994A03F00703136041
:1098300000F0CEF90346002B05D0964BDB68954A25
:1098400023F08073D36000F0E5F90346002B0ED0BF
:109850004FF080430022C3F80C214FF080430022D8
:10986000C3F810214FF080430022C3F8382500F0E0
:1098700003FA0346002B02D0874B03221A6000F044
:109880001DFA0346002B0BD0844B05221A60844B33
:1098900001221A60834B00221A60834B3F221A6018
:1098A00000F02EFA0346002B76D04FF080537F4A0B
:1098B000D3F80434C2F820354FF080537B4AD3F8F4
:1098C0000834C2F824354FF08053784AD3F80C346A
:1098D000C2F828354FF08053744AD3F81034C2F8D8
:1098E0002C354FF08053714AD3F81434C2F8303518
:1098F0004FF080536D4AD3F81834C2F834354FF026
:1099000080536A4AD3F81C34C2F840354FF0805374
:10991000664AD3F82034C2F844354FF08053634A86
:10992000D3F82434C2F848354FF080535F4AD3F857
:109930002834C2F84C354FF080535C4AD3F82C34AD
:10994000C2F850354FF08053584AD3F83034C2F83B
:1099500054354FF08053554AD3F83434C2F860354B
:109960004FF08053514AD3F83834C2F864354FF081
:1099700080534E4AD3F83C34C2F868354FF08053D8
:109980004A4AD3F84034C2F86C354FF08053474A06
:10999000D3F84434C2F8703500F0D4F90346002BF4
:1099A00005D0434B1B68434A03F04F03136000F09C
:1099B000FBF90346002B0DD04FF08043D3F8003461
:1099C00003F00103002B05D04FF080436FF001023C
:1099D000C3F8002400F01AFA0346002B05D0364BDA
:1099E0001B68354A43F480631360344BD3F88830E6
:1099F000324A43F47003C2F88830BFF34F8FBFF38D
:109A00006F8F4FF01023D3F80032002B05DB4FF09F
:109A10001023D3F80432002B2BDA294B0122C3F890
:109A2000042500BF264BD3F80034002BFAD04FF0AA
:109A300010231522C3F8002200BF214BD3F80034B5
:109A4000002BFAD04FF010231522C3F8042200BFD8
:109A50001B4BD3F80034002BFAD0194B0022C3F86B
:109A6000042500BF164BD3F80034002BFAD0FFF7C3
:109A70009BFEFFF7ADFE00BF80BD00BF24030010BA
:109A80004035014074C007400DF0ADBA44020010EB
:109A90003C050040F0ED00E0A005004010560040FD
:109AA00088560040185600401456004000C0004040
:109AB00058020010E40E00403C17004000ED00E0AA
:109AC00000E0014080B400AF144B1B68DBB2062BF2
:109AD0001DD1134B1B6803F00F03002B17D1114B43
:109AE0001B6803F0F003302B01D1012310E00D4B74
:109AF0001B6803F0F003402B01D1012308E0094B60
:109B00001B6803F0F003502B01D1012300E0002378
:109B10001846BD465DF8047B704700BFE00F00F0BB
:109B2000E40F00F0E80F00F080B400AF0C4B1B68AE
:109B3000DBB2062B0DD10B4B1B6803F00F03002B80
:109B400007D1094B1B6803F0F003302B01D101232F
:109B500000E000231846BD465DF8047B704700BF57
:109B6000E00F00F0E40F00F0E80F00F080B400AF69
:109B7000144B1B68DBB2062B1DD1134B1B6803F083
:109B80000F03002B17D1114B1B6803F0F003302B90
:109B900001D1012310E00D4B1B6803F0F003402BB3
:109BA00001D1012308E0094B1B6803F0F003502B9F
:109BB00001D1012300E000231846BD465DF8047B77
:109BC000704700BFE00F00F0E40F00F0E80F00F076
:109BD00080B400AF0C4B1B68DBB2062B0DD10B4BD6
:109BE0001B6803F00F03002B07D1094B1B6803F020
:109BF000F003302B01D1012300E000231846BD46BD
:109C00005DF8047B704700BFE00F00F0E40F00F048
:109C1000E80F00F080B400AF144B1B68DBB2062BDA
:109C20001DD1134B1B6803F00F03002B17D1114BF1
:109C30001B6803F0F003302B01D1012310E00D4B22
:109C40001B6803F0F003402B01D1012308E0094B0E
:109C50001B6803F0F003502B01D1012300E0002327
:109C60001846BD465DF8047B704700BFE00F00F06A
:109C7000E40F00F0E80F00F080B400AF0C4B1B685D
:109C8000DBB2062B0DD10B4B1B6803F00F03002B2F
:109C900007D1094B1B6803F0F003302B01D10123DE
:109CA00000E000231846BD465DF8047B704700BF06
:109CB000E00F00F0E40F00F0E80F00F080B400AF18
:109CC0000C4B1B68DBB2062B0DD10B4B1B6803F052
:109CD0000F03002B07D1094B1B6803F0F003302B57
:109CE00001D1012300E000231846BD465DF8047B46
:109CF000704700BFE00F00F0E40F00F0E80F00F045
:109D000080B400AF0C4B1B68DBB2062B0DD10B4BA4
:109D10001B6803F00F03002B07D1094B1B6803F0EE
:109D2000F003502B01D1012300E000231846BD466B
:109D30005DF8047B704700BFE00F00F0E40F00F017
:109D4000E80F00F080B400AF144B1B68DBB2062BA9
:109D50001DD1134B1B6803F00F03002B17D1114BC0
:109D60001B6803F0F003302B01D1012310E00D4BF1
:109D70001B6803F0F003402B01D1012308E0094BDD
:109D80001B6803F0F003502B01D1012300E00023F6
:109D90001846BD465DF8047B704700BFE00F00F039
:109DA000E40F00F0E80F00F080B400AF144B1B6824
:109DB000DBB2062B1DD1134B1B6803F00F03002BE6
:109DC00017D1114B1B6803F0F003302B01D1012395
:109DD00010E00D4B1B6803F0F003402B01D1012371
:109DE00008E0094B1B6803F0F003502B01D101235D
:109DF00000E000231846BD465DF8047B704700BFB5
:109E0000E00F00F0E40F00F0E80F00F080B400AFC6
:109E1000074B1B68062B05D1064B1B68062B01D18F
:109E2000012300E000231846BD465DF8047B70471F
:109E3000300100103401001080B483B000AF7860AE
:109E40004FF0A04318460C37BD465DF8047B7047C1
:109E500080B584B000AF7860084611461A460346C4
:109E6000FB700B46BB7013467B703B1D1846FFF71B
:109E7000E3FFF860FA78BB785B001A437B789B00BD
:109E80001A433B7E1B0242EA03013B7F1B047A68B4
:109E90001943FB6802F5E07243F8221000BF103747
:109EA000BD4680BD80B584B002AF786000230193C9
:109EB000002300930023012201217868FFF7C8FFE7
:109EC00000BF0837BD4680BD80B584B002AF786062
:109ED0000B46FB70FA78002301930023009313468E
:109EE000002200217868FFF7B3FF00BF0837BD46A6
:109EF00080BD80B584B000AF78603B1D1846FFF789
:109F00009BFFF8607B68012202FA03F31946F868A8
:109F100000F02CF800BF1037BD4680BD80B584B07E
:109F200000AF78603B1D1846FFF786FFF8607B683E
:109F3000012202FA03F31946F86800F026F800BF80
:109F40001037BD4680BD80B582B000AF7860396003
:109F50003B68002B03D17868FFF7E0FF02E07868E8
:109F6000FFF7C7FF00BF0837BD4680BD80B483B090
:109F700000AF786039607B683A68C3F8082500BF95
:109F80000C37BD465DF8047B704780B483B000AFEA
:109F9000786039607B683A68C3F80C2500BF0C37DD
:109FA000BD465DF8047B704780B582B000AF786035
:109FB000054A7B6813441B7800211846FFF7C3FF4E
:109FC00000BF0837BD4680BD0806030080B582B0DB
:109FD00000AF7860054A7B6813441B78012118465E
:109FE000FFF7B1FF00BF0837BD4680BD080603007C
:109FF00080B582B000AF00237B6005E07868FFF792
:10A00000E5FF7B6801337B607B68032BF6D900BFDB
:10A010000837BD4680BD000080B582B000AF002388
:10A020007B6009E0094A7B6813441B781846FFF7F8
:10A0300039FF7B6801337B607B68032BF2D9FFF724
:10A04000D7FF00BF0837BD4680BD00BF080603002C
:10A0500080B582B000AF00237B600AE0084A7B68CD
:10A0600013441B7803211846FFF72EFF7B6801334A
:10A070007B607B68032BF1D900BF0837BD4680BDEC
:10A080000C06030080B582B000AF78607B6803F0F7
:10A090000103002B01D0FFF7BFFF7B6803F0020331
:10A0A000002B01D0FFF7D4FF00BF0837BD4680BDAD
:10A0B00080B483B000AF0346FB71FB7903F01F024D
:10A0C000074997F907305B09012000FA02F22033B3
:10A0D00041F8232000BF0C37BD465DF8047B704774
:10A0E00000E100E080B500AF00F00FFB024B002262
:10A0F0009A7000BF80BD00BF602C002080B582B088
:10A1000000AF00237B60144B1B78002B02D085230B
:10A110007B601CE0104B00229A600F4B00225A60BB
:10A120000D4B00221A610C4B0022DA600B4800F044
:10A13000C3FA786005F02CFC034683F00103DBB220
:10A14000002B01D000F0D8FA034B01221A707B6873
:10A1500018460837BD4680BD602C002011A20200C1
:10A1600080B485B000AF78607B681B68FB60FB68DB
:10A17000002B03D0FB681A687B681A60FB681846DE
:10A180001437BD465DF8047B7047000080B582B08F
:10A1900000AF0023FB71FB1D1846FEF7CFFA094BF9
:10A1A000DB68013B074AD360064BDB68002B01D11B
:10A1B000FFF798FFFB791846FEF7CBFA00BF083788
:10A1C000BD4680BD602C002080B584B000AF034642
:10A1D000FB71FB79002B02D10B4BFB6001E00B4BB9
:10A1E000FB60F868FFF7BCFFB860BB68002B05D0C8
:10A1F000BB685B68FA7910469847F2E700BF00BF7A
:10A200001037BD4680BD00BF682C0020702C002098
:10A2100080B582B000AF0346FB71FB79002B05D1FE
:10A22000094B01225A700020FFF7CEFFFB79012B6A
:10A2300005D1054B01229A700120FFF7C5FF00BF31
:10A240000837BD4680BD00BF602C002080B582B0BD
:10A2500000AF786039607B68002B05D1044B012288
:10A260005A700020FFF7B0FF00BF0837BD4680BD21
:10A27000602C002080B584B000AF03463960FB71CC
:10A28000FB79012B08D0032B23D0002B00D025E035
:10A290000020FFF70DFF21E00023FB7307F10F0300
:10A2A0001846FEF74BFA0F4B1B7883F00103DBB225
:10A2B000002B01D0FFF722FF0A4BDB680133094A6C
:10A2C000D360084B01229A70FB7B1846FEF741FAD7
:10A2D00004E000F011FAFFF759FF00BF00BF10378C
:10A2E000BD4680BD602C002080B588B000AF78608E
:10A2F00039603B68FB617B681B783B737B685B68FC
:10A300003B617B689B68DBB23B757B68DB68BB614C
:10A31000074AFB6952F823300649FA6951F82210BE
:10A3200007F10C021046984700BF2037BD4680BD9C
:10A33000742C0020782C002080B588B000AF7860A5
:10A3400039603B68FB617B681B783B737B685B68AB
:10A350003B617B689B68DBB23B757B68DB68BB61FC
:10A36000074AFB6952F823300649FA6951F822106E
:10A3700007F10C021046984700BF2037BD4680BD4C
:10A38000742C0020782C0020B0B58EB000AFF8609F
:10A39000B9607A60FB681B783B6329493B6B7A683C
:10A3A00041F82320BB681A6926493B6B41F82320FA
:10A3B000BB685B7F1946244A3B6B13440A461A70FC
:10A3C000BB6807F110041D460FCD0FC495E80F00C0
:10A3D00084E80F003B6B3B6200237B63FB681B78C8
:10A3E0001A46194B9B5C002B0ED0FB68181D7B682E
:10A3F000002B01D0154A00E0002207F11003194696
:10A4000002F0B4FA786315E0FB681B781A460E4B2D
:10A410009B5C002B0ED1FB6803F10C007B68002BCA
:10A4200001D00B4A00E0002207F11003194601F0A9
:10A4300033FC78637B6B18463837BD46B0BD00BF30
:10A44000742C0020782C0020902E0020E9A202001D
:10A4500039A3020080B483B000AF0346FB71FB79DF
:10A4600003F01F02074997F907305B09012000FA42
:10A4700002F241F8232000BF0C37BD465DF8047B93
:10A48000704700BF00E100E080B483B000AF034636
:10A490003960FB7197F90730002B0BDA3B68DAB2B1
:10A4A0000C49FB7903F00F03043B5201D2B20B4479
:10A4B0001A7609E03B68DAB2074997F9073052018A
:10A4C000D2B20B4483F8002300BF0C37BD465DF8C1
:10A4D000047B704700ED00E000E100E080B483B051
:10A4E00000AF78607B681B0B5BB218460C37BD462B
:10A4F0005DF8047B704780B582B000AF03460A4622
:10A50000FB711346BB71BA7997F9073011461846AB
:10A51000FFF7BAFF00BF0837BD4680BD80B582B0E7
:10A5200000AF0346FB7197F907301846FFF792FF1B
:10A5300000BF0837BD4680BD80B483B000AF03467E
:10A54000FB71114A97F90730002B00DA1F335B11BA
:10A550005BB252F8232097F90730594203F01F03EA
:10A5600001F01F0158BF4B425BB222FA03F303F024
:10A570000103002B14BF01230023DBB218460C3764
:10A58000BD465DF8047B704700E100E080B483B015
:10A5900000AF78604FF080427B68C2F8083300BF9C
:10A5A0000C37BD465DF8047B704780B483B000AFC4
:10A5B0000346FB71FB7903F1804301221A6000BF5F
:10A5C0000C37BD465DF8047B704780B485B000AFA2
:10A5D0000346FB80FB8803F1804300221A60FB885E
:10A5E00003F180431B68FB60FB6800BF1437BD4666
:10A5F0005DF8047B704780B483B000AF0346FB80F6
:10A60000FB8803F180431B68002B14BF0123002348
:10A61000DBB218460C37BD465DF8047B704780B44A
:10A6200083B000AF78604FF080427B68C2F8183585
:10A6300000BF0C37BD465DF8047B704780B400AFA7
:10A640004FF08043D3F818341B0C03F00103002BA8
:10A6500014BF01230023DBB21846BD465DF8047B1E
:10A66000704780B582B000AF0623FB714FF0804089
:10A67000FFF734FF03461846FFF75EFF034683F0FB
:10A680000103DBB2002B12D04FF08040FFF726FF12
:10A6900003461A46FB7919461046FFF72CFF4FF088
:10A6A0008040FFF71BFF03461846FFF737FF00BF48
:10A6B0000837BD4680BD000080B485B000AF78602B
:10A6C0000023FB600B4B1B79002B02D08523FB6022
:10A6D00008E0084A7B681360064B01221A71054B9B
:10A6E00000225A71FB6818461437BD465DF8047B9A
:10A6F000704700BF7C2C002080B500AFFFF7B1FF92
:10A700000120FFF78CFF00BF80BD80B500AF0C209B
:10A71000FFF74BFF00BFFFF791FF0346002BFAD175
:10A7200000BF80BD80B500AF4FF48070FFF763FFBE
:10A730000346002B14D04FF48070FFF746FF012032
:10A74000FFF724FF104B5B7983F00103DBB2002B92
:10A7500006D00D4B01225A710B4B1B680020984705
:10A760004FF48270FFF747FF0346002B0AD04FF4E7
:10A770008270FFF72AFF0220FFF708FF024B1B68D9
:10A780000120984700BF80BD7C2C002080B483B09E
:10A7900000AF0346FB71FB7903F01F02074997F9ED
:10A7A00007305B09012000FA02F241F8232000BFC4
:10A7B0000C37BD465DF8047B704700BF00E100E048
:10A7C00080B483B000AF03463960FB7197F907305E
:10A7D000002B0BDA3B68DAB20C49FB7903F00F036C
:10A7E000043B5201D2B20B441A7609E03B68DAB25C
:10A7F000074997F907305201D2B20B4483F800237E
:10A8000000BF0C37BD465DF8047B704700ED00E0EB
:10A8100000E100E080B582B000AF03460A46FB715C
:10A820001346BB71BA7997F9073011461846FFF7FE
:10A83000C7FF00BF0837BD4680BD80B582B000AFFE
:10A840000346FB7197F907301846FFF79FFF00BFDB
:10A850000837BD4680BD80B582B000AF0346FB809F
:10A86000FB88184600F024F803461B68012B0CBF38
:10A8700001230023DBB218460837BD4680BD80B5F2
:10A8800084B000AF0346FB80FB88184600F010F848
:10A8900003461A4600231360FB88184600F008F8A8
:10A8A00003461B68FB60FB6800BF1037BD4680BDD8
:10A8B00080B483B000AF0346FB80FB8803F1804384
:10A8C00003F5C04318460C37BD465DF8047B70475E
:10A8D00080B483B000AF7860044A7B68C2F8043368
:10A8E00000BF0C37BD465DF8047B70470060004038
:10A8F00080B483B000AF7860044A7B68C2F8083344
:10A9000000BF0C37BD465DF8047B70470060004017
:10A9100080B483B000AF7860054BD3F804237B6824
:10A92000134018460C37BD465DF8047B704700BFE6
:10A930000060004080B483B000AF7860094A7B6853
:10A9400003F5A27352F82330064943F001027B68F5
:10A9500003F5A27341F8232000BF0C37BD465DF814
:10A96000047B70470060004080B483B000AF786023
:10A97000094A7B6803F5A27352F82330064923F095
:10A9800001027B6803F5A27341F8232000BF0C3756
:10A99000BD465DF8047B70470060004080B485B020
:10A9A00000AFF860B9601346FB71164AFB6803F507
:10A9B000A27352F82330134923F4473323F440732E
:10A9C000FA6802F5A27241F822300E4AFB6803F5DC
:10A9D000A27352F82320BB681B0203F4F851FB79E1
:10A9E0001B0403F440330B4306491A43FB6803F589
:10A9F000A27341F8232000BF1437BD465DF8047BE5
:10AA0000704700BF0060004080B483B000AF786042
:10AA1000074A7B6803F5A27352F823301B0A03F040
:10AA20001F0318460C37BD465DF8047B704700BF16
:10AA30000060004080B483B000AF7860074A7B6854
:10AA400003F5A27352F823301B0C03F00303DBB2AF
:10AA500018460C37BD465DF8047B70470060004027
:10AA600080B483B000AF78604FF0A04318460C3735
:10AA7000BD465DF8047B704780B584B000AF786058
:10AA8000084611461A460346FB700B46BB70134638
:10AA90007B703B1D1846FFF7E3FFF860FA78BB7840
:10AAA0005B001A437B789B001A433B7E1B0242EA01
:10AAB00003013B7F1B047A681943FB6802F5E072CF
:10AAC00043F8221000BF1037BD4680BD80B584B06A
:10AAD00002AF78600B46FB70FA78002301930023E5
:10AAE00000931346002200217868FFF7C5FF00BFDE
:10AAF0000837BD4680BD80B584B000AF78603B1D8F
:10AB00001846FFF7ADFFF8607A68FB6802F5E0725F
:10AB100053F8223023F00203BB607A68FB6802F529
:10AB2000E072B96843F8221000BF1037BD4680BDFF
:10AB300080B584B000AF78600B46FB703B1D1846B3
:10AB4000FFF78EFFF8607A68FB6802F5E07253F851
:10AB500022307A6823F44031FB6802F5E07243F852
:10AB600022107A68FB6802F5E07253F82230FA7816
:10AB7000120411467A681943FB6802F5E07243F843
:10AB8000221000BF1037BD4680BD80B584B000AF35
:10AB900078603B1D1846FFF763FFF860F86800F027
:10ABA00021F802467B6822FA03F303F001031846FA
:10ABB0001037BD4680BD80B584B000AF78603B1DC6
:10ABC0001846FFF74DFFF8607A68FB6802F5E072FF
:10ABD00053F822301B0C03F00303DBB21846103786
:10ABE000BD4680BD80B483B000AF78607B68D3F889
:10ABF000103518460C37BD465DF8047B704780B5AC
:10AC000086B000AFF860B9607A604FF0A0433B6156
:10AC1000FB687B6112E07B699B0007F1180213441B
:10AC200053F8083C1846FFF7DDFF02467B681A60C0
:10AC30007B6804337B607B6901337B61FA68BB68A6
:10AC400013447A699A42E6D300BF1837BD4680BDE7
:10AC500080B485B000AF786039603B68FB607B688A
:10AC6000DB08BB607B6803F007037B6001227B6825
:10AC700002FA03F3F968BA680A44127813401846D6
:10AC80001437BD465DF8047B704780B485B000AFD3
:10AC9000786039603B68FB607B68DB08BB607B6881
:10ACA00003F007037B60FA68BB6813441B785AB251
:10ACB00001217B6801FA03F35BB2134359B2FA68CE
:10ACC000BB681344CAB21A7000BF1437BD465DF8A2
:10ACD000047B704780B483B000AF78600D4A7B6816
:10ACE0001344303393F90030002B09DB094A7B68A9
:10ACF0001344303393F90030072B01DC012300E0CB
:10AD0000002303F00103DBB218460C37BD465DF8A3
:10AD1000047B7047842C002080B483B000AF78603F
:10AD2000084A7B681344303393F90030072BCCBFBB
:10AD300001230023DBB218460C37BD465DF8047BC7
:10AD4000704700BF842C002080B483B000AF7860CF
:10AD5000074A7B681344303393F90030DB43DBB29E
:10AD6000DB09DBB218460C37BD465DF8047B704743
:10AD7000842C002080B485B000AFF860B9607A60A0
:10AD8000FB70BB6859B2104AFB68134430330A4663
:10AD90001A700D49BB687A6841F82320FB7883F06C
:10ADA0000103DBB2002B08D0BB68083BFA6851B244
:10ADB000054A13440A4683F8502000BF1437BD46A5
:10ADC0005DF8047B704700BF842C002080B483B002
:10ADD00000AF7860054A7B6813443033FF221A7055
:10ADE00000BF0C37BD465DF8047B7047842C002003
:10ADF00080B582B000AF786003497868FFF745FFFF
:10AE000000BF0837BD4680BDD82C002080B483B079
:10AE100000AF7860054A7B681344303393F9003003
:10AE200018460C37BD465DF8047B7047842C002023
:10AE300080B483B000AF7860044A7B6852F8233056
:10AE400018460C37BD465DF8047B7047842C002003
:10AE500080B588B000AFF860B9601346FB71FF237E
:10AE6000FB77FB79002B01D0002300E008237B61F6
:10AE7000FB79002B01D0082300E00C233B617B69A8
:10AE8000BB6112E00E4ABB6952F82330B3F1FF3FB9
:10AE900008D1FB79BA68B969F868FFF76BFFBB693D
:10AEA000FB7706E0BB690133BB61BA693B699A4233
:10AEB000E8D397F91F3018462037BD4680BD00BF44
:10AEC000842C002080B483B000AF0346FB71FB7973
:10AED0000A4A4FF0FF3142F82310FB79072B06D9BD
:10AEE000FB79083B054A1344FF2283F8502000BF3A
:10AEF0000C37BD465DF8047B704700BF842C0020F2
:10AF000080B582B000AF214B93F85830002B03D0AE
:10AF100008237B607B6834E00023FB7006E0FB784D
:10AF20001846FFF753FFFB780133FB70FB781F2BAC
:10AF3000F5D90023FB7006E0FB781846FFF7C2FF47
:10AF4000FB780133FB70FB780B2BF5D90422002131
:10AF50000F4804F0E4FF06210620FFF75BFC062003
:10AF6000FFF76BFC4FF4BE70FFF789FC4FF0004019
:10AF7000FFF7AEFC054B012283F8582000237B60CD
:10AF80007B6818460837BD4680BD00BF842C002072
:10AF9000D82C002080B400AF064B93F85830002B1B
:10AFA00014BF01230023DBB21846BD465DF8047BC5
:10AFB000704700BF842C002080B586B000AFF860D9
:10AFC000B9607A6000237B61F868FFF7BDFE034635
:10AFD000002B02D008237B6156E0BB689B78C3F34B
:10AFE0004003DBB21A467968F868FFF731FF034681
:10AFF000FB7497F91330B3F1FF3F43D0BB689B78E4
:10B00000C3F38003DBB283F00103DBB2002B13D068
:10B01000BB689B7803F00103DBB2002B03D0F86818
:10B02000FFF769FD05E0BB685B781946F868FFF734
:10B030004DFDF868FFF7DCFEBB689B7803F0020368
:10B04000DBB2002B08D097F91300BB681B781A46B7
:10B05000F968FFF7A3FC17E097F91330083B0D4A96
:10B06000134493F95010BB681B789B015AB297F9AF
:10B070001330083B0A4351B2064A13440A4683F888
:10B08000502001E004237B617B6918461837BD46D8
:10B0900080BD00BF842C002080B588B000AF7860F0
:10B0A0000B46FB707868FFF737FE0346002B27D06E
:10B0B0007868FFF7ABFE0346083B2A4A134493F92E
:10B0C0005030FB73FB7B9B09BB73BB7B032B0AD10B
:10B0D0007868FFF75AFD0346002B01D0032300E0F8
:10B0E0000223FB7706E0BB7B012B01D1022300E0AA
:10B0F0000323FB77FB7F19467868FFF719FD2DE0E6
:10B100007868FFF7E7FD0346002B27D07868FFF744
:10B110007DFE0346BB61BB699BB240339BB29B0083
:10B12000FB82BB691846FFF705FCFB8A1846FFF750
:10B13000A6FBFB78002B11D07868FFF767FE03466B
:10B140001846FFF775FE38613B69002B06D00122D7
:10B15000BB6902FA03F31846FFF7BAFB00BF2037BA
:10B16000BD4680BD842C002080B584B000AF7860DF
:10B170007868FFF7D1FD0346002B04D000217868E2
:10B18000FFF7D6FC15E07868FFF7A4FD0346002B17
:10B190000FD07868FFF73AFE0346FB60FB6818465D
:10B1A000FFF7E2FB0122FB6802FA03F31846FFF700
:10B1B0009FFB00BF1037BD4680BD80B582B000AF99
:10B1C00078607868FFF7E1FC0346002B14BF012389
:10B1D0000023DBB218460837BD4680BD80B594B069
:10B1E00000AF00233B640023FB604FF480737B8738
:10B1F0000123BB640023FB631DE07B8F1846FFF730
:10B200002AFB0346002B0DD0B86CFFF781FB0346E9
:10B21000002B07D07B8F1846FFF731FB3A6CBB6CD5
:10B2200013433B64BB6C5B00BB647B8F04337B8745
:10B23000FB6B0133FB63FB6B072BDED94FF4BE7056
:10B24000FFF709FB0346002B0ED04FF4BE70FFF74B
:10B2500016FB3B6C43F000433B6407F10C031A46BA
:10B2600001210020FFF7CBFC3B6CDBB2002B29D087
:10B270000123BB640023FB6321E0BA6C3B6C1340E9
:10B28000002B16D0F86BFFF7BFFB7863F86BFFF766
:10B29000D1FB034687F83330F86BFFF7C9FDF8623E
:10B2A000FB6A002B05D097F83320FB6A1146786BB8
:10B2B0009847BB6C5B00BB64FB6B0133FB63FB6BB0
:10B2C000072BDAD93B6C002B80F2F180002387F842
:10B2D0004F300023BB6000237B640BE07B6C9B0042
:10B2E00007F1500213444FF0FF3243F84C2C7B6CB3
:10B2F00001337B647B6C002BF0D0002387F84F3048
:10B300000023FB6374E06C4AFB6B1344503393F9E6
:10B31000003087F82B3097F82B3023F0C0037B6286
:10B32000654AFB6B1344503393F90030B3F1FF3F90
:10B330005BD03B1D1946786AFFF78AFC0346002B59
:10B3400053D097F82B309B0987F82330786AFFF7A2
:10B350005DFD03461846FFF76BFDF861FB69002BA6
:10B3600003D197F82330032B3FD197F82330032BD9
:10B3700005D107F108031946786AFFF786FC786A59
:10B38000FFF719FC0346FB7607F10C031946786AB0
:10B39000FFF75EFC78617B69002B02D0FB7E022BFD
:10B3A00005D07B69002B20D1FB7E032B1DD197F8A4
:10B3B0002330032B10D1FB7E022B01D1032300E0AD
:10B3C0000223FB74FB7C1946786AFFF7B1FB97F800
:10B3D0004F30013387F84F30FB69002B05D097F8C9
:10B3E0002320FB691146786A9847FB6B0133FB63A6
:10B3F000FB6B032B87D997F84F30002B52D00123DA
:10B4000087F84E303B461A4601210020FFF7F7FB34
:10B4100000237B6416E07B6C9B0007F15002134411
:10B4200053F8502C7B6C9B0007F150010B4453F8F0
:10B43000443C9A4203D0002387F84E3005E07B6CF1
:10B4400001337B647B6C002BE5D097F84E30002BEA
:10B4500003D0002387F84F3024E000237B641EE0F4
:10B460007B6C9B0007F15002134453F8502C7B6C0B
:10B470009B0007F150010B4443F8442C7B6C9B006C
:10B4800007F15002134453F8482C7B6C9B0007F1E2
:10B4900050010B4443F84C2C7B6C01337B647B6C78
:10B4A000002BDDD097F84F30002B7FF426AF00BF84
:10B4B0005037BD4680BD00BF842C002080B500AF52
:10B4C000024B1B68984700BF80BD00BFE02C0020E6
:10B4D00080B483B000AF78607B68064A934201D1A4
:10B4E000054B00E0002318460C37BD465DF8047B91
:10B4F000704700BF00200040E02C002080B586B0DF
:10B5000000AF786039607868FFF7E2FF38613B6927
:10B51000002B20D00023FB750023FB7207F10B03E7
:10B520001846FDF70BF93B691B79002B02D001236C
:10B53000FB7505E03B693A681A603B6901221A71A4
:10B54000FB7A1846FDF705F9FB7D002B03D011238C
:10B55000FB60FB6802E00023FB60FB6818461837BD
:10B56000BD4680BD80B584B000AF78607868FFF7D5
:10B57000AFFFF860FB68002B05D0FB6800221A6063
:10B58000FB6800221A7100BF1037BD4680BD000065
:10B5900080B483B000AF0346FB71FB7903F01F0258
:10B5A000074997F907305B09012000FA02F241F8D8
:10B5B000232000BF0C37BD465DF8047B704700BFF9
:10B5C00000E100E080B483B000AF0346FB71FB797B
:10B5D00003F01F02074997F907305B09012000FAC1
:10B5E00002F2203341F8232000BF0C37BD465DF83E
:10B5F000047B704700E100E080B483B000AF0346F5
:10B600003960FB7197F90730002B0BDA3B68DAB22F
:10B610000C49FB7903F00F03043B5201D2B20B44F7
:10B620001A7609E03B68DAB2074997F90730520108
:10B63000D2B20B4483F8002300BF0C37BD465DF83F
:10B64000047B704700ED00E000E100E080B483B0CF
:10B6500000AF78607B681B0B5BB218460C37BD46A9
:10B660005DF8047B704780B582B000AF03460A46A0
:10B67000FB711346BB71BA7997F90730114618462A
:10B68000FFF7BAFF00BF0837BD4680BD80B582B066
:10B6900000AF0346FB7197F907301846FFF778FFB4
:10B6A00000BF0837BD4680BD80B582B000AF0346FD
:10B6B000FB7197F907301846FFF784FF00BF083782
:10B6C000BD4680BD80B485B000AF78600B467B80FE
:10B6D0007B887A68134400221A607B887A68134456
:10B6E0001B68FB60FB6800BF1437BD465DF8047B38
:10B6F000704780B483B000AF78600B467B807B8856
:10B700007A6813441B68002B14BF01230023DBB2AB
:10B7100018460C37BD465DF8047B704780B483B093
:10B7200000AF786039607B683A68C3F8042300BFD3
:10B730000C37BD465DF8047B704780B483B000AF22
:10B74000786039607B68D3F804233B681340002B92
:10B7500014BF01230023DBB218460C37BD465DF849
:10B76000047B704780B483B000AF786039607B6839
:10B770003A68C3F8082300BF0C37BD465DF8047B68
:10B78000704780B485B000AF78607B68D3F88034B0
:10B79000FB607B68FA68C3F88024FB68184614379E
:10B7A000BD465DF8047B704780B483B000AF78601D
:10B7B0007B680422C3F8002500BF0C37BD465DF846
:10B7C000047B704780B483B000AF78607B68002250
:10B7D000C3F8002500BF0C37BD465DF8047B7047F9
:10B7E00080B485B000AFF860B9607A60FB687A68B1
:10B7F000C3F81425FB68BA68C3F80C2500BF1437DA
:10B80000BD465DF8047B704780B582B000AF7860BC
:10B810004FF0FF324FF0FF317868FFF7E1FF00BFD4
:10B820000837BD4680BD80B483B000AF78607B68C8
:10B83000D3F80C3518460C37BD465DF8047B7047CD
:10B8400080B483B000AF78607B68D3F814351846B5
:10B850000C37BD465DF8047B704780B483B000AF01
:10B8600078607B68D3F8083518460C37BD465DF81C
:10B87000047B704780B483B000AF78607B68D3F8F6
:10B88000103518460C37BD465DF8047B704780B410
:10B8900085B000AFF860B9607A60FB68BA68C3F839
:10B8A0000825FB687A68C3F8102500BF1437BD4629
:10B8B0005DF8047B704780B582B000AF78604FF0D0
:10B8C000FF324FF0FF317868FFF7E1FF00BF083724
:10B8D000BD4680BD80B483B000AF78607B68D3F88C
:10B8E0001835DBB218460C37BD465DF8047B70474F
:10B8F00080B483B000AF78600B46FB70FA787B6849
:10B90000C3F81C2500BF0C37BD465DF8047B7047AB
:10B9100080B483B000AF78600B46FB70FB787A6828
:10B92000134401221A6000BF0C37BD465DF8047B4A
:10B93000704780B483B000AF78600B46FB7013464D
:10B94000BB70FA78BB781343DBB21A467B68C3F846
:10B950006C2500BF0C37BD465DF8047B704780B492
:10B9600083B000AF786039607B683A68C3F82425FB
:10B9700000BF0C37BD465DF8047B704780B483B0D0
:10B9800000AF78604FF0A04318460C37BD465DF815
:10B99000047B704780B584B000AF786008461146DC
:10B9A0001A460346FB700B46BB7013467B703B1D6B
:10B9B0001846FFF7E3FFF860FA78BB785B001A439C
:10B9C0007B789B001A433B7E1B0242EA03013B7FCC
:10B9D0001B047A681943FB6802F5E07243F82210F1
:10B9E00000BF1037BD4680BD80B584B002AF78601F
:10B9F0000023019300230093002301220121786892
:10BA0000FFF7C8FF00BF0837BD4680BD80B584B0D2
:10BA100002AF78600B46FB70FA7800230193002395
:10BA200000931346002200217868FFF7B3FF00BFA0
:10BA30000837BD4680BD80B584B002AF7860002372
:10BA40000193002300930023012200217868FFF76F
:10BA5000A1FF00BF0837BD4680BD80B584B000AFF0
:10BA600078603B1D1846FFF789FFF8607B6801226C
:10BA700002FA03F31946F86800F004F800BF103723
:10BA8000BD4680BD80B483B000AF786039607B680C
:10BA90003A68C3F8082500BF0C37BD465DF8047B43
:10BAA000704780B582B000AF786039603B681B6832
:10BAB000B3F1FF3F09D03B681B681846FFF7CDFF85
:10BAC0003B681B681846FFF78FFF3B685B68B3F164
:10BAD000FF3F05D03B685B6800211846FFF796FFE3
